{
  "_format": "hh-sol-artifact-1",
  "contractName": "DirectListingsLogic",
  "sourceName": "contracts/Marketplace/direct-listings/DirectListingsLogic.sol",
  "abi": [
    {
      "inputs": [
        {
          "internalType": "address",
          "name": "_nativeTokenWrapper",
          "type": "address"
        }
      ],
      "stateMutability": "nonpayable",
      "type": "constructor"
    },
    {
      "anonymous": false,
      "inputs": [
        {
          "indexed": true,
          "internalType": "uint256",
          "name": "listingId",
          "type": "uint256"
        },
        {
          "indexed": true,
          "internalType": "address",
          "name": "buyer",
          "type": "address"
        },
        {
          "indexed": false,
          "internalType": "bool",
          "name": "approved",
          "type": "bool"
        }
      ],
      "name": "BuyerApprovedForListing",
      "type": "event"
    },
    {
      "anonymous": false,
      "inputs": [
        {
          "indexed": true,
          "internalType": "address",
          "name": "listingCreator",
          "type": "address"
        },
        {
          "indexed": true,
          "internalType": "uint256",
          "name": "listingId",
          "type": "uint256"
        }
      ],
      "name": "CancelledListing",
      "type": "event"
    },
    {
      "anonymous": false,
      "inputs": [
        {
          "indexed": true,
          "internalType": "address",
          "name": "listingCreator",
          "type": "address"
        },
        {
          "indexed": true,
          "internalType": "uint256",
          "name": "listingId",
          "type": "uint256"
        },
        {
          "indexed": true,
          "internalType": "address",
          "name": "assetContract",
          "type": "address"
        },
        {
          "components": [
            {
              "internalType": "uint256",
              "name": "listingId",
              "type": "uint256"
            },
            {
              "internalType": "address",
              "name": "listingCreator",
              "type": "address"
            },
            {
              "internalType": "address",
              "name": "assetContract",
              "type": "address"
            },
            {
              "internalType": "uint256",
              "name": "tokenId",
              "type": "uint256"
            },
            {
              "internalType": "uint256",
              "name": "quantity",
              "type": "uint256"
            },
            {
              "internalType": "address[]",
              "name": "currencies",
              "type": "address[]"
            },
            {
              "internalType": "uint256[]",
              "name": "prices",
              "type": "uint256[]"
            },
            {
              "internalType": "uint128",
              "name": "startTimestamp",
              "type": "uint128"
            },
            {
              "internalType": "uint128",
              "name": "endTimestamp",
              "type": "uint128"
            },
            {
              "internalType": "bool",
              "name": "reserved",
              "type": "bool"
            },
            {
              "internalType": "enum IDirectListings.TokenType",
              "name": "tokenType",
              "type": "uint8"
            },
            {
              "internalType": "enum IDirectListings.Status",
              "name": "status",
              "type": "uint8"
            }
          ],
          "indexed": false,
          "internalType": "struct IDirectListings.Listing",
          "name": "listing",
          "type": "tuple"
        }
      ],
      "name": "NewListing",
      "type": "event"
    },
    {
      "anonymous": false,
      "inputs": [
        {
          "indexed": true,
          "internalType": "address",
          "name": "listingCreator",
          "type": "address"
        },
        {
          "indexed": true,
          "internalType": "uint256",
          "name": "listingId",
          "type": "uint256"
        },
        {
          "indexed": true,
          "internalType": "address",
          "name": "assetContract",
          "type": "address"
        },
        {
          "indexed": false,
          "internalType": "uint256",
          "name": "tokenId",
          "type": "uint256"
        },
        {
          "indexed": false,
          "internalType": "address",
          "name": "buyer",
          "type": "address"
        },
        {
          "indexed": false,
          "internalType": "uint256",
          "name": "quantityBought",
          "type": "uint256"
        },
        {
          "indexed": false,
          "internalType": "address",
          "name": "currency",
          "type": "address"
        },
        {
          "indexed": false,
          "internalType": "uint256",
          "name": "totalPricePaid",
          "type": "uint256"
        }
      ],
      "name": "NewSale",
      "type": "event"
    },
    {
      "anonymous": false,
      "inputs": [
        {
          "indexed": true,
          "internalType": "address",
          "name": "listingCreator",
          "type": "address"
        },
        {
          "indexed": true,
          "internalType": "uint256",
          "name": "listingId",
          "type": "uint256"
        },
        {
          "indexed": true,
          "internalType": "address",
          "name": "assetContract",
          "type": "address"
        },
        {
          "components": [
            {
              "internalType": "uint256",
              "name": "listingId",
              "type": "uint256"
            },
            {
              "internalType": "address",
              "name": "listingCreator",
              "type": "address"
            },
            {
              "internalType": "address",
              "name": "assetContract",
              "type": "address"
            },
            {
              "internalType": "uint256",
              "name": "tokenId",
              "type": "uint256"
            },
            {
              "internalType": "uint256",
              "name": "quantity",
              "type": "uint256"
            },
            {
              "internalType": "address[]",
              "name": "currencies",
              "type": "address[]"
            },
            {
              "internalType": "uint256[]",
              "name": "prices",
              "type": "uint256[]"
            },
            {
              "internalType": "uint128",
              "name": "startTimestamp",
              "type": "uint128"
            },
            {
              "internalType": "uint128",
              "name": "endTimestamp",
              "type": "uint128"
            },
            {
              "internalType": "bool",
              "name": "reserved",
              "type": "bool"
            },
            {
              "internalType": "enum IDirectListings.TokenType",
              "name": "tokenType",
              "type": "uint8"
            },
            {
              "internalType": "enum IDirectListings.Status",
              "name": "status",
              "type": "uint8"
            }
          ],
          "indexed": false,
          "internalType": "struct IDirectListings.Listing",
          "name": "listing",
          "type": "tuple"
        }
      ],
      "name": "UpdatedListing",
      "type": "event"
    },
    {
      "inputs": [],
      "name": "_msgData",
      "outputs": [
        {
          "internalType": "bytes",
          "name": "",
          "type": "bytes"
        }
      ],
      "stateMutability": "view",
      "type": "function"
    },
    {
      "inputs": [],
      "name": "_msgSender",
      "outputs": [
        {
          "internalType": "address",
          "name": "sender",
          "type": "address"
        }
      ],
      "stateMutability": "view",
      "type": "function"
    },
    {
      "inputs": [
        {
          "internalType": "uint256",
          "name": "_listingId",
          "type": "uint256"
        },
        {
          "internalType": "address",
          "name": "_buyer",
          "type": "address"
        },
        {
          "internalType": "bool",
          "name": "_toApprove",
          "type": "bool"
        }
      ],
      "name": "approveBuyerForListing",
      "outputs": [],
      "stateMutability": "nonpayable",
      "type": "function"
    },
    {
      "inputs": [
        {
          "internalType": "uint256",
          "name": "_listingId",
          "type": "uint256"
        },
        {
          "internalType": "address",
          "name": "_buyFor",
          "type": "address"
        },
        {
          "internalType": "uint256",
          "name": "_quantity",
          "type": "uint256"
        },
        {
          "internalType": "address",
          "name": "_currency",
          "type": "address"
        },
        {
          "internalType": "uint256",
          "name": "_expectedTotalPrice",
          "type": "uint256"
        }
      ],
      "name": "buyFromListing",
      "outputs": [],
      "stateMutability": "payable",
      "type": "function"
    },
    {
      "inputs": [
        {
          "internalType": "uint256",
          "name": "_listingId",
          "type": "uint256"
        }
      ],
      "name": "cancelListing",
      "outputs": [],
      "stateMutability": "nonpayable",
      "type": "function"
    },
    {
      "inputs": [
        {
          "components": [
            {
              "internalType": "address",
              "name": "assetContract",
              "type": "address"
            },
            {
              "internalType": "uint256",
              "name": "tokenId",
              "type": "uint256"
            },
            {
              "internalType": "uint256",
              "name": "quantity",
              "type": "uint256"
            },
            {
              "internalType": "address[]",
              "name": "currencies",
              "type": "address[]"
            },
            {
              "internalType": "uint256[]",
              "name": "prices",
              "type": "uint256[]"
            },
            {
              "internalType": "uint128",
              "name": "startTimestamp",
              "type": "uint128"
            },
            {
              "internalType": "uint128",
              "name": "endTimestamp",
              "type": "uint128"
            },
            {
              "internalType": "bool",
              "name": "reserved",
              "type": "bool"
            }
          ],
          "internalType": "struct IDirectListings.ListingParameters",
          "name": "_params",
          "type": "tuple"
        }
      ],
      "name": "createListing",
      "outputs": [
        {
          "internalType": "uint256",
          "name": "listingId",
          "type": "uint256"
        }
      ],
      "stateMutability": "nonpayable",
      "type": "function"
    },
    {
      "inputs": [
        {
          "internalType": "uint256",
          "name": "_startId",
          "type": "uint256"
        },
        {
          "internalType": "uint256",
          "name": "_endId",
          "type": "uint256"
        }
      ],
      "name": "getAllListings",
      "outputs": [
        {
          "components": [
            {
              "internalType": "uint256",
              "name": "listingId",
              "type": "uint256"
            },
            {
              "internalType": "address",
              "name": "listingCreator",
              "type": "address"
            },
            {
              "internalType": "address",
              "name": "assetContract",
              "type": "address"
            },
            {
              "internalType": "uint256",
              "name": "tokenId",
              "type": "uint256"
            },
            {
              "internalType": "uint256",
              "name": "quantity",
              "type": "uint256"
            },
            {
              "internalType": "address[]",
              "name": "currencies",
              "type": "address[]"
            },
            {
              "internalType": "uint256[]",
              "name": "prices",
              "type": "uint256[]"
            },
            {
              "internalType": "uint128",
              "name": "startTimestamp",
              "type": "uint128"
            },
            {
              "internalType": "uint128",
              "name": "endTimestamp",
              "type": "uint128"
            },
            {
              "internalType": "bool",
              "name": "reserved",
              "type": "bool"
            },
            {
              "internalType": "enum IDirectListings.TokenType",
              "name": "tokenType",
              "type": "uint8"
            },
            {
              "internalType": "enum IDirectListings.Status",
              "name": "status",
              "type": "uint8"
            }
          ],
          "internalType": "struct IDirectListings.Listing[]",
          "name": "_allListings",
          "type": "tuple[]"
        }
      ],
      "stateMutability": "view",
      "type": "function"
    },
    {
      "inputs": [
        {
          "internalType": "uint256",
          "name": "_startId",
          "type": "uint256"
        },
        {
          "internalType": "uint256",
          "name": "_endId",
          "type": "uint256"
        }
      ],
      "name": "getAllValidListings",
      "outputs": [
        {
          "components": [
            {
              "internalType": "uint256",
              "name": "listingId",
              "type": "uint256"
            },
            {
              "internalType": "address",
              "name": "listingCreator",
              "type": "address"
            },
            {
              "internalType": "address",
              "name": "assetContract",
              "type": "address"
            },
            {
              "internalType": "uint256",
              "name": "tokenId",
              "type": "uint256"
            },
            {
              "internalType": "uint256",
              "name": "quantity",
              "type": "uint256"
            },
            {
              "internalType": "address[]",
              "name": "currencies",
              "type": "address[]"
            },
            {
              "internalType": "uint256[]",
              "name": "prices",
              "type": "uint256[]"
            },
            {
              "internalType": "uint128",
              "name": "startTimestamp",
              "type": "uint128"
            },
            {
              "internalType": "uint128",
              "name": "endTimestamp",
              "type": "uint128"
            },
            {
              "internalType": "bool",
              "name": "reserved",
              "type": "bool"
            },
            {
              "internalType": "enum IDirectListings.TokenType",
              "name": "tokenType",
              "type": "uint8"
            },
            {
              "internalType": "enum IDirectListings.Status",
              "name": "status",
              "type": "uint8"
            }
          ],
          "internalType": "struct IDirectListings.Listing[]",
          "name": "_validListings",
          "type": "tuple[]"
        }
      ],
      "stateMutability": "view",
      "type": "function"
    },
    {
      "inputs": [
        {
          "internalType": "uint256",
          "name": "_listingId",
          "type": "uint256"
        }
      ],
      "name": "getListing",
      "outputs": [
        {
          "components": [
            {
              "internalType": "uint256",
              "name": "listingId",
              "type": "uint256"
            },
            {
              "internalType": "address",
              "name": "listingCreator",
              "type": "address"
            },
            {
              "internalType": "address",
              "name": "assetContract",
              "type": "address"
            },
            {
              "internalType": "uint256",
              "name": "tokenId",
              "type": "uint256"
            },
            {
              "internalType": "uint256",
              "name": "quantity",
              "type": "uint256"
            },
            {
              "internalType": "address[]",
              "name": "currencies",
              "type": "address[]"
            },
            {
              "internalType": "uint256[]",
              "name": "prices",
              "type": "uint256[]"
            },
            {
              "internalType": "uint128",
              "name": "startTimestamp",
              "type": "uint128"
            },
            {
              "internalType": "uint128",
              "name": "endTimestamp",
              "type": "uint128"
            },
            {
              "internalType": "bool",
              "name": "reserved",
              "type": "bool"
            },
            {
              "internalType": "enum IDirectListings.TokenType",
              "name": "tokenType",
              "type": "uint8"
            },
            {
              "internalType": "enum IDirectListings.Status",
              "name": "status",
              "type": "uint8"
            }
          ],
          "internalType": "struct IDirectListings.Listing",
          "name": "listing",
          "type": "tuple"
        }
      ],
      "stateMutability": "view",
      "type": "function"
    },
    {
      "inputs": [
        {
          "internalType": "uint256",
          "name": "_listingId",
          "type": "uint256"
        },
        {
          "internalType": "address",
          "name": "_buyer",
          "type": "address"
        }
      ],
      "name": "isBuyerApprovedForListing",
      "outputs": [
        {
          "internalType": "bool",
          "name": "",
          "type": "bool"
        }
      ],
      "stateMutability": "view",
      "type": "function"
    },
    {
      "inputs": [],
      "name": "totalListings",
      "outputs": [
        {
          "internalType": "uint256",
          "name": "",
          "type": "uint256"
        }
      ],
      "stateMutability": "view",
      "type": "function"
    },
    {
      "inputs": [
        {
          "internalType": "uint256",
          "name": "_listingId",
          "type": "uint256"
        },
        {
          "components": [
            {
              "internalType": "address",
              "name": "assetContract",
              "type": "address"
            },
            {
              "internalType": "uint256",
              "name": "tokenId",
              "type": "uint256"
            },
            {
              "internalType": "uint256",
              "name": "quantity",
              "type": "uint256"
            },
            {
              "internalType": "address[]",
              "name": "currencies",
              "type": "address[]"
            },
            {
              "internalType": "uint256[]",
              "name": "prices",
              "type": "uint256[]"
            },
            {
              "internalType": "uint128",
              "name": "startTimestamp",
              "type": "uint128"
            },
            {
              "internalType": "uint128",
              "name": "endTimestamp",
              "type": "uint128"
            },
            {
              "internalType": "bool",
              "name": "reserved",
              "type": "bool"
            }
          ],
          "internalType": "struct IDirectListings.ListingParameters",
          "name": "_params",
          "type": "tuple"
        }
      ],
      "name": "updateListing",
      "outputs": [],
      "stateMutability": "nonpayable",
      "type": "function"
    }
  ],
  "bytecode": "0x60a0346200007057601f6200355938819003918201601f19168301916001600160401b0383118484101762000075578084926020946040528339810103126200007057516001600160a01b038116810362000070576080526040516134cd90816200008c8239608051816111e70152f35b600080fd5b634e487b7160e01b600052604160045260246000fdfe6080604052600436101561001257600080fd5b6000803560e01c8063107a274a14611e31578063119df25f14611e04578063305a67a814611d2d57806331654b4d14611bae57806348dd77df14611a2d578063704232dc14610efa5780638b49d47e14610eb65780639cfbe2a614610e4b578063c5275fb014610d5f578063c78b616c14610d34578063c912bd29146106b85763e161419c146100a157600080fd5b346106b1576003196020368201126106b4576001600160401b03600435116106b45761010090600435360301126106b1576100da612f15565b60405163a32fa5b360e01b8082527ff94103142c1baabe9ac2b5d1487bf783de9e69cfeea9a72f5c9c94afd7877b8c60048301526001600160a01b039092166024820152602081604481305afa9081156106a6578391610687575b501561065357610149600435600401612281565b6040519182527f86d5cf0a6bdc8d859ba3bdc97043337c82a0e609035f378e419298b6a3e00ae660048301526001600160a01b03166024820152602081604481305afa8015610648576101a3918391610619575b50612295565b600080516020613458833981519152805490600182019081831161060557556101ca612f15565b6101e06101db600435600401612281565b61284f565b926101ef60a4600435016122cf565b936101fe60c4600435016122cf565b6001600160801b03861661021c6001600160801b03831682106122e3565b4211610594575b61023b8261023636600435600401612189565b61297c565b610249600435600401612281565b9561025e606460043501600435600401612413565b90610273608460043501600435600401612413565b909290919060043560e401358015159003610590576040519a6102958c61207d565b8a8c526001600160a01b038a811660208e01521660408c0152600435602481013560608d01526044013560808c01526102d0913691906120d1565b60a08a015236906102e092612127565b60c08801526001600160801b031660e08701526001600160801b031661010086015260043560e40135151561012086015261014085019061032091612448565b6001610160850181905283825260008051602061347883398151915260209081526040808420875181559187015192820180546001600160a01b039485166001600160a01b0319918216179091559087015160028301805491909416911617909155606085015160038201556080850151600482015560a08501518051906001600160401b03821161055f57600160401b821161055f57602060058401916103cd84845481865585612467565b0190845260208420845b838110610573575050505060c08501518051906001600160401b03821161055f57600160401b821161055f576020600684019161041984845481865585612467565b0190845260208420845b83811061054b5750505050806007600892016001600160801b0360e088015116815490856001600160801b03196101008b015160801b169216171790550161047e6101208601511515829060ff801983541691151516179055565b61014085015160028110156105375761ff0082549160081b169061ff0019161781556101608501519160048310156105235750936104bf849260209661249b565b7f98a33d7c3722bd5a5d9f36a6e082b2c8ca77ac1e0cdf17db914d4606e1c033e66105186001600160a01b036104f86004803501612281565b6040518981529116956001600160a01b0316939091829189830190611e82565b0390a4604051908152f35b634e487b7160e01b81526021600452602490fd5b634e487b7160e01b83526021600452602483fd5b600190602084519401938184015501610423565b634e487b7160e01b84526041600452602484fd5b82516001600160a01b0316818301556020909201916001016103d7565b8780fd5b946105b3906001600160801b036105ab4292612355565b16101561239f565b6001600160801b034216946001600160801b038082161460000361022357506106006105fa6105e660c4600435016122cf565b6105f460a4600435016122cf565b906123fa565b86612384565b610223565b634e487b7160e01b84526011600452602484fd5b61063b915060203d602011610641575b6106338183612099565b810190612269565b3861019d565b503d610629565b6040513d84823e3d90fd5b60405162461bcd60e51b815260206004820152600c60248201526b214c49535445525f524f4c4560a01b6044820152606490fd5b6106a0915060203d602011610641576106338183612099565b38610135565b6040513d85823e3d90fd5b80fd5b5080fd5b50346106b15760403660031901126106b1576024356001600160401b0381116106b4576106e9903690600401612189565b600435825260008051602061347883398151915260205260ff600860408420015460101c16600481101561053757600161072391146124bc565b805160405163a32fa5b360e01b81527f86d5cf0a6bdc8d859ba3bdc97043337c82a0e609035f378e419298b6a3e00ae660048201526001600160a01b039091166024820152602081604481305afa80156106a6576107879184916106195750612295565b600435825260008051602061347883398151915260205260408220600101546107c5906001600160a01b03908116906107be612f15565b1614612508565b6107cd612f15565b60043583526000805160206134788339815191526020526107f060408420612560565b8251909290610807906001600160a01b031661284f565b6001600160801b0361010085015116421015610cef57604084015182516001600160a01b0390811691161480610cde575b15610c7e576001600160801b0360a0830151166001600160801b0360c084015116946108658683106122e3565b6001600160801b0360e082015116428111908115610c65575b5015610c11576001600160801b0360e08201511682141580610c08575b610b84575b506108ab828461297c565b600160a01b60019003835116946020840151916040850151606086015160808701519160e08801511515956040519a6108e38c61207d565b6004358c526001600160a01b038b1660208d015260408c015260608b015260808a015260a089015260c08801526001600160801b0390811660e08801521661010086015261012085015261093b906101408501612448565b6001610160840181905260048035865260008051602061347883398151915260209081526040808820875181559187015193820180546001600160a01b039586166001600160a01b03199182161790915590870151600283018054919095169116179092556060850151600383015560808501519082015560a08401518051906001600160401b038211610b5357600160401b8211610b5357602060058401916109ea84845481865585612467565b0190875260208720875b838110610b67575050505060c08401518051906001600160401b038211610b5357600160401b8211610b535760206006840191610a3684845481865585612467565b0190875260208720875b838110610b3f5750505050806007600892016001600160801b0360e087015116815490886001600160801b03196101008a015160801b1692161717905501610a9b6101208501511515829060ff801983541691151516179055565b6101408401516002811015610b2b5761ff0082549160081b169061ff001916178155610160840151906004821015610b2b5790610ad79161249b565b5160405160208082526001600160a01b039283169460043594909316927fde274bdd472e74f953216b883f05ee53ae214ee63a25c7565c799c5302a92d3b92918291610b2591830190611e82565b0390a480f35b634e487b7160e01b86526021600452602486fd5b600190602084519401938184015501610a40565b634e487b7160e01b87526041600452602487fd5b82516001600160a01b0316818301556020909201916001016109f4565b9490610b9c906001600160801b036105ab4292612355565b6001600160801b036101008142169601511681148015610bf8575b15610bc4575b93386108a0565b50610bf3610bed6001600160801b0360c0850151166001600160801b0360a086015116906123fa565b85612384565b610bbd565b506001600160801b038114610bb7565b5042821061089b565b60405162461bcd60e51b815260206004820152602660248201527f4469726563744c697374696e673a206c697374696e6720616c7265616479206160448201526531ba34bb329760d11b6064820152608490fd5b9050821480610c75575b3861087e565b50428611610c6f565b60405162461bcd60e51b815260206004820152603260248201527f4469726563744c697374696e673a2063616e6e6f7420757064617465207768616044820152713a103a37b5b2b71034b9903634b9ba32b21760711b6064820152608490fd5b506060840151602083015114610838565b60405162461bcd60e51b815260206004820152601f60248201527f4469726563744c697374696e673a206c697374696e6720657870697265642e006044820152606490fd5b50346106b157806003193601126106b157602060008051602061345883398151915254604051908152f35b50346106b157610d6e36611fad565b918282111580610e33575b610d829061274a565b610d8c828461273d565b600190818101809111610e1f57610da2906127ff565b92805b85811115610dbf5760405180610dbb8782611fc8565b0390f35b808452600080516020613478833981519152602052610dff60408520610dee610de8858561273d565b91612560565b610df88289612713565b5286612713565b5082810180911115610da557634e487b7160e01b84526011600452602484fd5b634e487b7160e01b83526011600452602483fd5b50600080516020613458833981519152548310610d79565b50346106b15760403660031901126106b1576040610e6761202a565b9160043581527fbde2ebd6fd7bed2358dd7ed448613644a3349ac97dd3e0ae2ccd1f11b3ebe615602052209060018060a01b0316600052602052602060ff604060002054166040519015158152f35b50346106b157806003193601126106b1576040610ed1612f74565b809383519485936020855281602086015285850137828201840152601f01601f19168101030190f35b5060a03660031901126106b157610f0f61202a565b6064356001600160a01b03811690036106b45760027fbbf78d3411d42a81effd97bb8c69faae4e77e75cec462245c1001191a0634c6f54146119e85760027fbbf78d3411d42a81effd97bb8c69faae4e77e75cec462245c1001191a0634c6f55600435825260008051602061347883398151915260205260ff600860408420015460101c166004811015610537576001610fa991146124bc565b6004358252600080516020613478833981519152602052610fcc60408320612560565b90610fd5612f15565b61012083015115801561199d575b1561194e5760443515158061193e575b156118ea576001600160801b038061010085015116421090816118d9575b501561188557602083019260018060a01b0384511692604082019260018060a01b0384511660608401958651610140860151926002841015611871579161106593916110609360443592612c38565b6126a3565b865b60a08401518051821015611864576001600160a01b0360643581169161108e908490612713565b5116146110a35761109e90612704565b611067565b959091929394955b60a08501515181101561180c576110d3906110cd6044359160c0880151612713565b51612454565b9260843584036117b9576064356001600160a01b031673eeeeeeeeeeeeeeeeeeeeeeeeeeeeeeeeeeeeeeee03611650578334036115e5575b6044356080860151146115b3575b600435885260008051602061347883398151915260205260046040892001611144604435825461273d565b9055815160408051636a2ab9fb60e11b8152916001600160a01b03169082600481305afa80156115a8578a928b91611551575b5061118961ffff612710921688612454565b04908a89878d8d60408c6044849660018060a01b0390511693518351948593849263152a902d60e11b8452600484015260248301525afa829181611508575b50611475575b5050918461121c611231978361122195611213611227987f00000000000000000000000000000000000000000000000000000000000000009b8c958692606435612fdd565b8d606435612fdd565b612796565b8861273d565b9086606435612fdd565b60018060a01b038251166101408601516002811015611461578992919060010361136b578751895192906001600160a01b0316803b156113675784928360c4926040519687958694637921219560e11b8652600486015260018060a01b031660248501526044840152604435606484015260a060848401528160a48401525af180156106485761134b575b5050907f4b364e4d76df596a0d676cc90572d540dc35530a7ffdb88405ba5e92b27da2a99260a0925b51945195519651604080519182526000196001861b0193841660208301526044359082015260643583166060820152608081019190915295811695931692a460017fbbf78d3411d42a81effd97bb8c69faae4e77e75cec462245c1001191a0634c6f5580f35b61135790939293612054565b611363579086386112bc565b8680fd5b8480fd5b9150610140869594950151600281101561146157908991156113b6575b5050509160a0917f4b364e4d76df596a0d676cc90572d540dc35530a7ffdb88405ba5e92b27da2a9936112e5565b60018060a01b03885116895193813b1561145d578360a4926040519687958694635c46a7ef60e11b8652600486015260018060a01b031660248501526044840152608060648401528160848401525af1801561145257611418575b8781611388565b917f4b364e4d76df596a0d676cc90572d540dc35530a7ffdb88405ba5e92b27da2a993919761144860a094612054565b9791935091611411565b6040513d8a823e3d90fd5b8380fd5b634e487b7160e01b8a52602160045260248afd5b6001600160a01b0382161515806114ff575b156111ce5792509250508861149c8583612796565b116114ac5790878461121c6111ce565b60405162461bcd60e51b815260206004820152602560248201527f4469726563744c697374696e673a2066656573206578636565642074686520706044820152643934b1b29760d91b6064820152608490fd5b50801515611487565b92509250506040813d604011611549575b8161152660409383612099565b81010312611545578991602061153b83612c24565b92015190386111c8565b8e80fd5b3d9150611519565b9250506040823d6040116115a0575b8161156d60409383612099565b8101031261159c57602061158083612c24565b9201519161ffff831683036115985791611189611177565b8a80fd5b8980fd5b3d9150611560565b6040513d8c823e3d90fd5b600435885260008051602061347883398151915260205260408820600801805462ff0000191662020000179055611119565b60405162461bcd60e51b815260206004820152603960248201527f4469726563744c697374696e673a206d73672e76616c7565206d75737420657860448201527f6163746c792062652074686520746f74616c2070726963652e000000000000006064820152608490fd5b6040516370a0823160e01b81526001600160a01b03848116600483015260209082906024908290606435165afa80156117795785918a91611784575b501015806116ee575b61110b5760405162461bcd60e51b815260206004820152602760248201527f4469726563744c697374696e673a206e6f7420656e6f7567682045524332302060448201526662616c616e636560c81b6064820152608490fd5b50604051636eb1769f60e11b81526001600160a01b0384166004820152306024820152602081806044810103816064356001600160a01b03165afa80156117795785918a91611740575b501015611695565b9150506020813d602011611771575b8161175c60209383612099565b8101031261176d5784905138611738565b8880fd5b3d915061174f565b6040513d8b823e3d90fd5b9150506020813d6020116117b1575b816117a060209383612099565b8101031261176d578490513861168c565b3d9150611793565b60405162461bcd60e51b815260206004820152602560248201527f4469726563744c697374696e673a20756e657870656374656420746f74616c20604482015264707269636560d81b6064820152608490fd5b60405162461bcd60e51b815260206004820152602a60248201527f4469726563744c697374696e673a20706179696e6720696e20696e76616c69646044820152691031bab93932b731bc9760b11b6064820152608490fd5b50959091929394956110ab565b634e487b7160e01b8b52602160045260248bfd5b60405162461bcd60e51b815260206004820152602660248201527f4469726563744c697374696e673a206e6f742077697468696e2073616c65207760448201526534b73237bb9760d11b6064820152608490fd5b905060e08401511642101538611011565b60405162461bcd60e51b815260206004820152602660248201527f4469726563744c697374696e673a20427579696e6720696e76616c6964207175604482015265616e7469747960d01b6064820152608490fd5b5060808301516044351115610ff3565b60405162461bcd60e51b815260206004820152602160248201527f4469726563744c697374696e673a206275796572206e6f7420617070726f76656044820152601960fa1b6064820152608490fd5b5060043584527fbde2ebd6fd7bed2358dd7ed448613644a3349ac97dd3e0ae2ccd1f11b3ebe615602090815260408086206001600160a01b038416875290915284205460ff16610fe3565b60405162461bcd60e51b815260206004820152601f60248201527f5265656e7472616e637947756172643a207265656e7472616e742063616c6c006044820152606490fd5b50346106b15760603660031901126106b157600435611a4a61202a565b90604435801515808203611367578285526000805160206134788339815191529160209280845260ff600860408920015460101c166004811015611b9a576001611a9491146124bc565b84875280845260408720600101546001600160a01b039190611abb908316836107be612f15565b858852845260ff60086040892001541615611b49577f3b557e1ed3b963f7473508fd10c6d7248b593c0dde6acd2a566b92caec84038a939291611b3f918689527fbde2ebd6fd7bed2358dd7ed448613644a3349ac97dd3e0ae2ccd1f11b3ebe6158552604089209716968789528452604088209060ff801983541691151516179055565b604051908152a380f35b60405162461bcd60e51b8152600481018590526024808201527f4469726563744c697374696e673a206c697374696e67206e6f742072657365726044820152633b32b21760e11b6064820152608490fd5b634e487b7160e01b88526021600452602488fd5b50346106b157611bbd36611fad565b918282111580611d15575b611bd19061274a565b611bdb828461273d565b91600192838101809111610e1f57611bf2906127ff565b938291805b82811115611c8f57505050611c0b906127ff565b9181845194835b868110611c275760405180610dbb8882611fc8565b611c3a611c348284612713565b51612b8c565b611c5f575b83810180911115611c12575b634e487b7160e01b85526011600452602485fd5b611c89611c6c8284612713565b5193611c7781612704565b94611c82828a612713565b5287612713565b50611c3f565b808552600080516020613478833981519152602052611cc960408620611cb8610de8858561273d565b611cc2828b612713565b5288612713565b50611ce0611c34611cda848461273d565b89612713565b611d04575b85810180911115611bf757634e487b7160e01b85526011600452602485fd5b92858101809111611c4b5792611ce5565b50600080516020613458833981519152548310611bc8565b50346106b15760203660031901126106b1576004358082526000805160206134788339815191528060205260ff600860408520015460101c166004811015611df0576001611d7b91146124bc565b818352602081905260408320600101546001600160a01b039190611da4908316836107be612f15565b82845260205260408320600801805462ff0000191662030000179055611dc8612f15565b167ff6e9b23c95dec70093b0abc1cf13bc5d35c9af03743f941904a4ef664e0119fb8380a380f35b634e487b7160e01b84526021600452602484fd5b50346106b157806003193601126106b1576020611e1f612f15565b6040516001600160a01b039091168152f35b50346106b15760203660031901126106b157611e726040610dbb92611e546127a3565b50600435815260008051602061347883398151915260205220612560565b6040519182916020835260208301905b90610180918282018151835260018060a01b0360209181838501511683860152816040850151166040860152606084015160608601526080840151608086015260a08401519560a08601528551809152826101a086019601916000905b828210611f94575050505060c08201519383810360c085015281808651928381520195019160005b828110611f8057505050506001600160801b038060e08301511660e0840152610100908183015116908301526101208082015115159083015261014080820151906002821015611f6a5783015261016080910151916004831015611f6a57015290565b634e487b7160e01b600052602160045260246000fd5b835187529581019592810192600101611f07565b8351811688529684019692840192600190910190611edf565b6040906003190112611fc3576004359060243590565b600080fd5b602080820190808352835180925260408301928160408460051b8301019501936000915b848310611ffc5750505050505090565b909192939495848061201a600193603f198682030187528a51611e82565b9801930193019194939290611fec565b602435906001600160a01b0382168203611fc357565b35906001600160a01b0382168203611fc357565b6001600160401b03811161206757604052565b634e487b7160e01b600052604160045260246000fd5b61018081019081106001600160401b0382111761206757604052565b90601f801991011681019081106001600160401b0382111761206757604052565b6001600160401b0381116120675760051b60200190565b92916120dc826120ba565b916120ea6040519384612099565b829481845260208094019160051b8101928311611fc357905b8282106121105750505050565b83809161211c84612040565b815201910190612103565b9291612132826120ba565b916121406040519384612099565b829481845260208094019160051b8101928311611fc357905b8282106121665750505050565b81358152908301908301612159565b35906001600160801b0382168203611fc357565b9190610100908184820312611fc357604051918201936001600160401b0394838110868211176120675760405282946121c182612040565b845260208201356020850152604082013560408501526060820135818111611fc357820183601f82011215611fc35783816020612200933591016120d1565b60608501526080820135908111611fc357810182601f82011215611fc35760e09281602061223093359101612127565b608084015261224160a08201612175565b60a084015261225260c08201612175565b60c08401520135908115158203611fc35760e00152565b90816020910312611fc357518015158103611fc35790565b356001600160a01b0381168103611fc35790565b1561229c57565b60405162461bcd60e51b815260206004820152600b60248201526a2141535345545f524f4c4560a81b6044820152606490fd5b356001600160801b0381168103611fc35790565b156122ea57565b60405162461bcd60e51b815260206004820152603c60248201527f4469726563744c697374696e673a20656e6454696d657374616d70206e6f742060448201527f67726561746572207468616e20737461727454696d657374616d702e000000006064820152608490fd5b90610e106001600160801b038093160191821161236e57565b634e487b7160e01b600052601160045260246000fd5b9190916001600160801b038080941691160191821161236e57565b156123a657565b60405162461bcd60e51b815260206004820152602660248201527f4469726563744c697374696e673a20696e76616c696420737461727454696d6560448201526539ba30b6b81760d11b6064820152608490fd5b6001600160801b03918216908216039190821161236e57565b903590601e1981360301821215611fc357018035906001600160401b038211611fc357602001918160051b36038313611fc357565b6002821015611f6a5752565b8181029291811591840414171561236e57565b909182811061247557505050565b60009182526020822092830192015b82811061249057505050565b818155600101612484565b906004811015611f6a5762ff000082549160101b169062ff00001916179055565b156124c357565b60405162461bcd60e51b815260206004820152601f60248201527f4469726563744c697374696e673a20696e76616c6964206c697374696e672e006044820152606490fd5b1561250f57565b60405162461bcd60e51b815260206004820152602360248201527f4469726563744c697374696e673a206e6f74206c697374696e6720637265617460448201526237b91760e91b6064820152608490fd5b906040519161256e8361207d565b828154815260018060a01b039160018381830154166020908185015284600284015416604085015260038301546060850152600483015460808501526005830194604051809183885492838152019160009889528489209189905b82821061268c5750505050816125e0910382612099565b60a08501526006830190604051928382845491828152019388528288209288905b828210612677575050505050918161261f60089360ff950382612099565b60c085015260078101546001600160801b03811660e086015260801c61010085015201548181161515610120840152612661828260081c166101408501612448565b60101c1691600483101561052357506101600152565b84548652948501949383019390830190612601565b8354811685529386019392870192908701906125c9565b156126aa57565b60405162461bcd60e51b815260206004820152602c60248201527f4469726563744c697374696e673a206e6f74206f776e6572206f72206170707260448201526b37bb32b2103a37b5b2b7399760a11b6064820152608490fd5b600019811461236e5760010190565b80518210156127275760209160051b010190565b634e487b7160e01b600052603260045260246000fd5b9190820391821161236e57565b1561275157565b60405162461bcd60e51b815260206004820152601d60248201527f4469726563744c697374696e673a20696e76616c69642072616e67652e0000006044820152606490fd5b9190820180921161236e57565b604051906127b08261207d565b81610160600091828152826020820152826040820152826060820152826080820152606060a0820152606060c08201528260e08201528261010082015282610120820152826101408201520152565b90612809826120ba565b6128166040519182612099565b8281528092612827601f19916120ba565b019060005b82811061283857505050565b6020906128436127a3565b8282850101520161282c565b6040516301ffc9a760e01b808252636cdb3d1360e11b60048301526020926001600160a01b0316918381602481865afa9081156129535760009161295f575b501561289c57505050600190565b829060246040518094819382526380ac58cd60e01b60048301525afa90811561295357600091612936575b50156128d35750600090565b6084906040519062461bcd60e51b82526004820152603660248201527f4469726563744c697374696e673a206c697374656420746f6b656e206d7573746044820152751031329022a92198989a9a9037b91022a9219b99189760511b6064820152fd5b61294d9150823d8411610641576106338183612099565b386128c7565b6040513d6000823e3d90fd5b6129769150843d8611610641576106338183612099565b3861288e565b604080820190815115612b3b57600190818351148015612b29575b15612ad557606084015151608085019081515103612a6b576000835b6129e9575b5050505091611060916129e7936129cd612f15565b82516020909301519151926001600160a01b031690612c38565b565b81518051821015612a6557816129fe91612713565b5115612a1357612a0d90612704565b836129b3565b825162461bcd60e51b815260206004820152602560248201527f4469726563744c697374696e673a206c697374696e67206174207a65726f20706044820152643934b1b29760d91b6064820152608490fd5b506129b8565b815162461bcd60e51b815260206004820152603760248201527f4469726563744c697374696e673a2063757272656e637920616e64207072696360448201527f65206c6973747320646f6573206e6f74206d617463682e0000000000000000006064820152608490fd5b5162461bcd60e51b815260206004820152602860248201527f4469726563744c697374696e673a206c697374696e6720696e76616c696420716044820152673ab0b73a34ba3c9760c11b6064820152608490fd5b506002851015611f6a57818514612997565b5162461bcd60e51b815260206004820152602560248201527f4469726563744c697374696e673a206c697374696e67207a65726f207175616e6044820152643a34ba3c9760d91b6064820152608490fd5b6001600160801b03908160e0820151164210159182612c12575b5081612bf8575b81612bb6575090565b6020810151604082015160608301516080840151610140909401516001600160a01b03938416955093929091166002841015611f6a57612bf594612c38565b90565b90506101608101516004811015611f6a5760011490612bad565b61010082015142911611915038612ba6565b51906001600160a01b0382168203611fc357565b90949391926000956000936002811015612f015760018103612d585750604051627eeac760e11b81526001600160a01b03848116600483015260248201969096529596509093169391926020928381604481895afa908115612d4d578591612d20575b5010159384612cac575b5050505090565b60405163e985e9c560e01b81526001600160a01b03929092166004830152306024830152929350918190839060449082905afa928315612d145792612cf7575b505038808080612ca5565b612d0d9250803d10610641576106338183612099565b3880612cec565b604051903d90823e3d90fd5b90508381813d8311612d46575b612d378183612099565b81010312611367575138612c9b565b503d612d2d565b6040513d87823e3d90fd5b9094915015612d68575b50505050565b604080516331a9108f60e11b8152600481018390529596506001600160a01b03959486169490936020939092909184816024818a5afa908115612ec2578491612ecc575b508716828816149687612dcb575b505050505050509038808080612d62565b909192939480969750519163020604bf60e21b8352600483015284826024818a5afa918215612ec2578492612e8b575b50163014948515612e18575b505050505038808080808080612dba565b845163e985e9c560e01b81526001600160a01b03929092166004830152306024830152939450928290849060449082905afa938415612e81575092612e64575b50503880808080612e07565b612e7a9250803d10610641576106338183612099565b3880612e58565b51903d90823e3d90fd5b9091508481813d8311612ebb575b612ea38183612099565b8101031261145d57612eb490612c24565b9038612dfb565b503d612e99565b86513d86823e3d90fd5b90508481813d8311612efa575b612ee38183612099565b8101031261145d57612ef490612c24565b38612dac565b503d612ed9565b634e487b7160e01b85526021600452602485fd5b60405163572b6c0560e01b8152336004820152602081602481305afa90811561295357600091612f56575b5015612f525736601319013560601c90565b3390565b612f6e915060203d8111610641576106338183612099565b38612f40565b60405163572b6c0560e01b8152336004820152602081602481305afa90811561295357600091612fbf575b5015612fb85760131936019036821161236e5760009190565b6000903690565b612fd7915060203d8111610641576106338183612099565b38612f9f565b90939291938215613108576001600160a01b039180831673eeeeeeeeeeeeeeeeeeeeeeeeeeeeeeeeeeeeeeee036130f957508116300361306557821692833b15611fc35760008094602460405180978193632e1a7d4d60e01b83528760048401525af1938415612953576129e794613056575b506133d5565b61305f90612054565b38613050565b91909230838216146000146130ed57503483036130b25716803b15611fc357600090600460405180948193630d0e30db60e41b83525af18015612953576130a95750565b6129e790612054565b60405162461bcd60e51b81526020600482015260136024820152721b5cd9cb9d985b1d5948084f48185b5bdd5b9d606a1b6044820152606490fd5b6129e7939192506133d5565b9091506129e79492935061310f565b5050505050565b9291906001600160a01b039081168183168181146131875730820361313a5750506129e7931661318f565b9093919250604051936323b872dd60e01b60208601526024850152604484015260648301526064825260a08201928284106001600160401b03851117612067576129e793604052166131cb565b505050505050565b60405163a9059cbb60e01b60208201526001600160a01b039290921660248301526044808301939093529181526129e7916131cb606483612099565b60408051908101916001600160a01b03166001600160401b038311828410176120675761323a926040526000806020958685527f5361666545524332303a206c6f772d6c6576656c2063616c6c206661696c656487860152868151910182855af16132346132c2565b91613301565b8051908282159283156132aa575b505050156132535750565b6084906040519062461bcd60e51b82526004820152602a60248201527f5361666545524332303a204552433230206f7065726174696f6e20646964206e6044820152691bdd081cdd58d8d9595960b21b6064820152fd5b6132ba9350820181019101612269565b388281613248565b3d156132fc573d906001600160401b03821161206757604051916132f0601f8201601f191660200184612099565b82523d6000602084013e565b606090565b919290156133635750815115613315575090565b3b1561331e5790565b60405162461bcd60e51b815260206004820152601d60248201527f416464726573733a2063616c6c20746f206e6f6e2d636f6e74726163740000006044820152606490fd5b8251909150156133765750805190602001fd5b6040519062461bcd60e51b82528160208060048301528251908160248401526000935b8285106133bc575050604492506000838284010152601f80199101168101030190fd5b8481018201518686016044015293810193859350613399565b600093928480808086865af16133e96132c2565b50156133f7575b5050509050565b6001600160a01b0316803b1561136757604051630d0e30db60e41b8152858160048187865af1801561344c5761343495965061343d575b5061318f565b803880806133f0565b61344690612054565b3861342e565b6040513d88823e3d90fdfebde2ebd6fd7bed2358dd7ed448613644a3349ac97dd3e0ae2ccd1f11b3ebe613bde2ebd6fd7bed2358dd7ed448613644a3349ac97dd3e0ae2ccd1f11b3ebe614a2646970667358221220dbba6b93fd20396e2eac2844004f98fb4136c5010c423f66894993ac4437f3db64736f6c63430008130033",
  "linkReferences": {},
  "deployedLinkReferences": {}
}