{
  "_format": "hh-sol-artifact-1",
  "contractName": "EnglishAuctionsLogic",
  "sourceName": "contracts/Marketplace/english-auctions/EnglishAuctionsLogic.sol",
  "abi": [
    {
      "inputs": [
        {
          "internalType": "address",
          "name": "_nativeTokenWrapper",
          "type": "address"
        }
      ],
      "stateMutability": "nonpayable",
      "type": "constructor"
    },
    {
      "anonymous": false,
      "inputs": [
        {
          "indexed": true,
          "internalType": "uint256",
          "name": "auctionId",
          "type": "uint256"
        },
        {
          "indexed": true,
          "internalType": "address",
          "name": "assetContract",
          "type": "address"
        },
        {
          "indexed": true,
          "internalType": "address",
          "name": "closer",
          "type": "address"
        },
        {
          "indexed": false,
          "internalType": "uint256",
          "name": "tokenId",
          "type": "uint256"
        },
        {
          "indexed": false,
          "internalType": "address",
          "name": "auctionCreator",
          "type": "address"
        },
        {
          "indexed": false,
          "internalType": "address",
          "name": "winningBidder",
          "type": "address"
        }
      ],
      "name": "AuctionClosed",
      "type": "event"
    },
    {
      "anonymous": false,
      "inputs": [
        {
          "indexed": true,
          "internalType": "address",
          "name": "auctionCreator",
          "type": "address"
        },
        {
          "indexed": true,
          "internalType": "uint256",
          "name": "auctionId",
          "type": "uint256"
        }
      ],
      "name": "CancelledAuction",
      "type": "event"
    },
    {
      "anonymous": false,
      "inputs": [
        {
          "indexed": true,
          "internalType": "address",
          "name": "auctionCreator",
          "type": "address"
        },
        {
          "indexed": true,
          "internalType": "uint256",
          "name": "auctionId",
          "type": "uint256"
        },
        {
          "indexed": true,
          "internalType": "address",
          "name": "assetContract",
          "type": "address"
        },
        {
          "components": [
            {
              "internalType": "uint256",
              "name": "auctionId",
              "type": "uint256"
            },
            {
              "internalType": "address",
              "name": "auctionCreator",
              "type": "address"
            },
            {
              "internalType": "address",
              "name": "assetContract",
              "type": "address"
            },
            {
              "internalType": "uint256",
              "name": "tokenId",
              "type": "uint256"
            },
            {
              "internalType": "uint256",
              "name": "quantity",
              "type": "uint256"
            },
            {
              "internalType": "address",
              "name": "currency",
              "type": "address"
            },
            {
              "internalType": "uint256",
              "name": "minimumBidAmount",
              "type": "uint256"
            },
            {
              "internalType": "uint256",
              "name": "buyoutBidAmount",
              "type": "uint256"
            },
            {
              "internalType": "uint64",
              "name": "timeBufferInSeconds",
              "type": "uint64"
            },
            {
              "internalType": "uint64",
              "name": "bidBufferBps",
              "type": "uint64"
            },
            {
              "internalType": "uint64",
              "name": "startTimestamp",
              "type": "uint64"
            },
            {
              "internalType": "uint64",
              "name": "endTimestamp",
              "type": "uint64"
            },
            {
              "internalType": "enum IEnglishAuctions.TokenType",
              "name": "tokenType",
              "type": "uint8"
            },
            {
              "internalType": "enum IEnglishAuctions.Status",
              "name": "status",
              "type": "uint8"
            }
          ],
          "indexed": false,
          "internalType": "struct IEnglishAuctions.Auction",
          "name": "auction",
          "type": "tuple"
        }
      ],
      "name": "NewAuction",
      "type": "event"
    },
    {
      "anonymous": false,
      "inputs": [
        {
          "indexed": true,
          "internalType": "uint256",
          "name": "auctionId",
          "type": "uint256"
        },
        {
          "indexed": true,
          "internalType": "address",
          "name": "bidder",
          "type": "address"
        },
        {
          "indexed": true,
          "internalType": "address",
          "name": "assetContract",
          "type": "address"
        },
        {
          "indexed": false,
          "internalType": "uint256",
          "name": "bidAmount",
          "type": "uint256"
        },
        {
          "components": [
            {
              "internalType": "uint256",
              "name": "auctionId",
              "type": "uint256"
            },
            {
              "internalType": "address",
              "name": "auctionCreator",
              "type": "address"
            },
            {
              "internalType": "address",
              "name": "assetContract",
              "type": "address"
            },
            {
              "internalType": "uint256",
              "name": "tokenId",
              "type": "uint256"
            },
            {
              "internalType": "uint256",
              "name": "quantity",
              "type": "uint256"
            },
            {
              "internalType": "address",
              "name": "currency",
              "type": "address"
            },
            {
              "internalType": "uint256",
              "name": "minimumBidAmount",
              "type": "uint256"
            },
            {
              "internalType": "uint256",
              "name": "buyoutBidAmount",
              "type": "uint256"
            },
            {
              "internalType": "uint64",
              "name": "timeBufferInSeconds",
              "type": "uint64"
            },
            {
              "internalType": "uint64",
              "name": "bidBufferBps",
              "type": "uint64"
            },
            {
              "internalType": "uint64",
              "name": "startTimestamp",
              "type": "uint64"
            },
            {
              "internalType": "uint64",
              "name": "endTimestamp",
              "type": "uint64"
            },
            {
              "internalType": "enum IEnglishAuctions.TokenType",
              "name": "tokenType",
              "type": "uint8"
            },
            {
              "internalType": "enum IEnglishAuctions.Status",
              "name": "status",
              "type": "uint8"
            }
          ],
          "indexed": false,
          "internalType": "struct IEnglishAuctions.Auction",
          "name": "auction",
          "type": "tuple"
        }
      ],
      "name": "NewBid",
      "type": "event"
    },
    {
      "inputs": [],
      "name": "_msgData",
      "outputs": [
        {
          "internalType": "bytes",
          "name": "",
          "type": "bytes"
        }
      ],
      "stateMutability": "view",
      "type": "function"
    },
    {
      "inputs": [],
      "name": "_msgSender",
      "outputs": [
        {
          "internalType": "address",
          "name": "sender",
          "type": "address"
        }
      ],
      "stateMutability": "view",
      "type": "function"
    },
    {
      "inputs": [
        {
          "internalType": "uint256",
          "name": "_auctionId",
          "type": "uint256"
        },
        {
          "internalType": "uint256",
          "name": "_bidAmount",
          "type": "uint256"
        }
      ],
      "name": "bidInAuction",
      "outputs": [],
      "stateMutability": "payable",
      "type": "function"
    },
    {
      "inputs": [
        {
          "internalType": "uint256",
          "name": "_auctionId",
          "type": "uint256"
        }
      ],
      "name": "cancelAuction",
      "outputs": [],
      "stateMutability": "nonpayable",
      "type": "function"
    },
    {
      "inputs": [
        {
          "internalType": "uint256",
          "name": "_auctionId",
          "type": "uint256"
        }
      ],
      "name": "collectAuctionPayout",
      "outputs": [],
      "stateMutability": "nonpayable",
      "type": "function"
    },
    {
      "inputs": [
        {
          "internalType": "uint256",
          "name": "_auctionId",
          "type": "uint256"
        }
      ],
      "name": "collectAuctionTokens",
      "outputs": [],
      "stateMutability": "nonpayable",
      "type": "function"
    },
    {
      "inputs": [
        {
          "components": [
            {
              "internalType": "address",
              "name": "assetContract",
              "type": "address"
            },
            {
              "internalType": "uint256",
              "name": "tokenId",
              "type": "uint256"
            },
            {
              "internalType": "uint256",
              "name": "quantity",
              "type": "uint256"
            },
            {
              "internalType": "address",
              "name": "currency",
              "type": "address"
            },
            {
              "internalType": "uint256",
              "name": "minimumBidAmount",
              "type": "uint256"
            },
            {
              "internalType": "uint256",
              "name": "buyoutBidAmount",
              "type": "uint256"
            },
            {
              "internalType": "uint64",
              "name": "timeBufferInSeconds",
              "type": "uint64"
            },
            {
              "internalType": "uint64",
              "name": "bidBufferBps",
              "type": "uint64"
            },
            {
              "internalType": "uint64",
              "name": "startTimestamp",
              "type": "uint64"
            },
            {
              "internalType": "uint64",
              "name": "endTimestamp",
              "type": "uint64"
            }
          ],
          "internalType": "struct IEnglishAuctions.AuctionParameters",
          "name": "_params",
          "type": "tuple"
        }
      ],
      "name": "createAuction",
      "outputs": [
        {
          "internalType": "uint256",
          "name": "auctionId",
          "type": "uint256"
        }
      ],
      "stateMutability": "nonpayable",
      "type": "function"
    },
    {
      "inputs": [
        {
          "internalType": "uint256",
          "name": "_startId",
          "type": "uint256"
        },
        {
          "internalType": "uint256",
          "name": "_endId",
          "type": "uint256"
        }
      ],
      "name": "getAllAuctions",
      "outputs": [
        {
          "components": [
            {
              "internalType": "uint256",
              "name": "auctionId",
              "type": "uint256"
            },
            {
              "internalType": "address",
              "name": "auctionCreator",
              "type": "address"
            },
            {
              "internalType": "address",
              "name": "assetContract",
              "type": "address"
            },
            {
              "internalType": "uint256",
              "name": "tokenId",
              "type": "uint256"
            },
            {
              "internalType": "uint256",
              "name": "quantity",
              "type": "uint256"
            },
            {
              "internalType": "address",
              "name": "currency",
              "type": "address"
            },
            {
              "internalType": "uint256",
              "name": "minimumBidAmount",
              "type": "uint256"
            },
            {
              "internalType": "uint256",
              "name": "buyoutBidAmount",
              "type": "uint256"
            },
            {
              "internalType": "uint64",
              "name": "timeBufferInSeconds",
              "type": "uint64"
            },
            {
              "internalType": "uint64",
              "name": "bidBufferBps",
              "type": "uint64"
            },
            {
              "internalType": "uint64",
              "name": "startTimestamp",
              "type": "uint64"
            },
            {
              "internalType": "uint64",
              "name": "endTimestamp",
              "type": "uint64"
            },
            {
              "internalType": "enum IEnglishAuctions.TokenType",
              "name": "tokenType",
              "type": "uint8"
            },
            {
              "internalType": "enum IEnglishAuctions.Status",
              "name": "status",
              "type": "uint8"
            }
          ],
          "internalType": "struct IEnglishAuctions.Auction[]",
          "name": "_allAuctions",
          "type": "tuple[]"
        }
      ],
      "stateMutability": "view",
      "type": "function"
    },
    {
      "inputs": [
        {
          "internalType": "uint256",
          "name": "_startId",
          "type": "uint256"
        },
        {
          "internalType": "uint256",
          "name": "_endId",
          "type": "uint256"
        }
      ],
      "name": "getAllValidAuctions",
      "outputs": [
        {
          "components": [
            {
              "internalType": "uint256",
              "name": "auctionId",
              "type": "uint256"
            },
            {
              "internalType": "address",
              "name": "auctionCreator",
              "type": "address"
            },
            {
              "internalType": "address",
              "name": "assetContract",
              "type": "address"
            },
            {
              "internalType": "uint256",
              "name": "tokenId",
              "type": "uint256"
            },
            {
              "internalType": "uint256",
              "name": "quantity",
              "type": "uint256"
            },
            {
              "internalType": "address",
              "name": "currency",
              "type": "address"
            },
            {
              "internalType": "uint256",
              "name": "minimumBidAmount",
              "type": "uint256"
            },
            {
              "internalType": "uint256",
              "name": "buyoutBidAmount",
              "type": "uint256"
            },
            {
              "internalType": "uint64",
              "name": "timeBufferInSeconds",
              "type": "uint64"
            },
            {
              "internalType": "uint64",
              "name": "bidBufferBps",
              "type": "uint64"
            },
            {
              "internalType": "uint64",
              "name": "startTimestamp",
              "type": "uint64"
            },
            {
              "internalType": "uint64",
              "name": "endTimestamp",
              "type": "uint64"
            },
            {
              "internalType": "enum IEnglishAuctions.TokenType",
              "name": "tokenType",
              "type": "uint8"
            },
            {
              "internalType": "enum IEnglishAuctions.Status",
              "name": "status",
              "type": "uint8"
            }
          ],
          "internalType": "struct IEnglishAuctions.Auction[]",
          "name": "_validAuctions",
          "type": "tuple[]"
        }
      ],
      "stateMutability": "view",
      "type": "function"
    },
    {
      "inputs": [
        {
          "internalType": "uint256",
          "name": "_auctionId",
          "type": "uint256"
        }
      ],
      "name": "getAuction",
      "outputs": [
        {
          "components": [
            {
              "internalType": "uint256",
              "name": "auctionId",
              "type": "uint256"
            },
            {
              "internalType": "address",
              "name": "auctionCreator",
              "type": "address"
            },
            {
              "internalType": "address",
              "name": "assetContract",
              "type": "address"
            },
            {
              "internalType": "uint256",
              "name": "tokenId",
              "type": "uint256"
            },
            {
              "internalType": "uint256",
              "name": "quantity",
              "type": "uint256"
            },
            {
              "internalType": "address",
              "name": "currency",
              "type": "address"
            },
            {
              "internalType": "uint256",
              "name": "minimumBidAmount",
              "type": "uint256"
            },
            {
              "internalType": "uint256",
              "name": "buyoutBidAmount",
              "type": "uint256"
            },
            {
              "internalType": "uint64",
              "name": "timeBufferInSeconds",
              "type": "uint64"
            },
            {
              "internalType": "uint64",
              "name": "bidBufferBps",
              "type": "uint64"
            },
            {
              "internalType": "uint64",
              "name": "startTimestamp",
              "type": "uint64"
            },
            {
              "internalType": "uint64",
              "name": "endTimestamp",
              "type": "uint64"
            },
            {
              "internalType": "enum IEnglishAuctions.TokenType",
              "name": "tokenType",
              "type": "uint8"
            },
            {
              "internalType": "enum IEnglishAuctions.Status",
              "name": "status",
              "type": "uint8"
            }
          ],
          "internalType": "struct IEnglishAuctions.Auction",
          "name": "_auction",
          "type": "tuple"
        }
      ],
      "stateMutability": "view",
      "type": "function"
    },
    {
      "inputs": [
        {
          "internalType": "uint256",
          "name": "_auctionId",
          "type": "uint256"
        }
      ],
      "name": "getWinningBid",
      "outputs": [
        {
          "internalType": "address",
          "name": "_bidder",
          "type": "address"
        },
        {
          "internalType": "address",
          "name": "_currency",
          "type": "address"
        },
        {
          "internalType": "uint256",
          "name": "_bidAmount",
          "type": "uint256"
        }
      ],
      "stateMutability": "view",
      "type": "function"
    },
    {
      "inputs": [
        {
          "internalType": "uint256",
          "name": "_auctionId",
          "type": "uint256"
        }
      ],
      "name": "isAuctionExpired",
      "outputs": [
        {
          "internalType": "bool",
          "name": "",
          "type": "bool"
        }
      ],
      "stateMutability": "view",
      "type": "function"
    },
    {
      "inputs": [
        {
          "internalType": "uint256",
          "name": "_auctionId",
          "type": "uint256"
        },
        {
          "internalType": "uint256",
          "name": "_bidAmount",
          "type": "uint256"
        }
      ],
      "name": "isNewWinningBid",
      "outputs": [
        {
          "internalType": "bool",
          "name": "",
          "type": "bool"
        }
      ],
      "stateMutability": "view",
      "type": "function"
    },
    {
      "inputs": [],
      "name": "totalAuctions",
      "outputs": [
        {
          "internalType": "uint256",
          "name": "",
          "type": "uint256"
        }
      ],
      "stateMutability": "view",
      "type": "function"
    }
  ],
  "bytecode": "0x60a03461007a57601f62002dae38819003918201601f19168301916001600160401b0383118484101761007f5780849260209460405283398101031261007a57516001600160a01b038116810361007a57608052604051612d189081620000968239608051818181610312015281816117e801526118960152f35b600080fd5b634e487b7160e01b600052604160045260246000fdfe6080604052600436101561001257600080fd5b60003560e01c806303a54fe014611c075780630858e5ad14611665578063119df25f146116385780631389b117146115c957806316002f4a1461159e57806316654d4014610cc75780632eb566bd14610bf85780636891939d14610b1757806378bd793514610ac65780637b063801146108345780638b49d47e146107ed57806396b5a75514610675578063c291537c1461059a5763ebf05a62146100b657600080fd5b3461051c57602036600319011261051c576100e36002600080516020612c63833981519152541415611f1f565b6002600080516020612c63833981519152556004356000908152600080516020612cc38339815191526020526040902060010154610136906001600160a01b039081169061012f61271e565b161461207c565b6004356000527fd526f5655f36f7dc8e8bd7b8ff16d8886b1e27059b0d19a6ab0f4742ac8dc6e68060205261017660ff60406000205460081c16156120d4565b600435600052602052604060002061010061ff0019825416179055600080516020612cc38339815191526020526101b06040600020611fb6565b600435600052600080516020612c838339815191526020526040600020906002604051926101dd84611e4e565b8054845260018101546001600160a01b031660208501520154604083019081526101a08201516004811015610426576003610219911415611f6b565b6102336001600160401b0361016084015116421015612132565b602083015161024c906001600160a01b0316151561218c565b51602082015160a083015160408051636a2ab9fb60e11b815295936001600160a01b0392831693909216919086600481305afa801561058e5760009660009161053f575b5061ffff169581878102048714821517156105295760009660009060018060a01b03604089015116604060608a0151604482518094819363152a902d60e11b835260048301528960248301525afa806000926000926104e2575b5061043c575b50509261034f8987969461034a6127106101a09d6103559761034361035d9d9b7f00000000000000000000000000000000000000000000000000000000000000009d8e9586928c020497889130906127e6565b308b6127e6565b6122a4565b90612297565b9130906127e6565b815160408301516001600160a01b0316907f7003143824ad94e684efcfd33e097dd7cd0e67243daf20f345f5186a9a7ba00a61039761271e565b60608681015160208089015197810151604080519384526001600160a01b03998a1692840192909252881690820152919095169490a401516004811015610426576002036103f4575b6001600080516020612c6383398151915255005b600435600052600080516020612cc3833981519152602052600960406000200161020061ff00198254161790556103e0565b634e487b7160e01b600052602160045260246000fd5b6001600160a01b0382161515806104d9575b156102f05792509850949391928061046c61271088830204846122a4565b116104855790979394919390929161034f6103436102f0565b60405162461bcd60e51b815260206004820152602660248201527f456e676c69736841756374696f6e3a2066656573206578636565642074686520604482015265383934b1b29760d11b6064820152608490fd5b5080151561044e565b925090506040823d604011610521575b816104ff60409383611e98565b8101031261051c5760206105128361270a565b92015190386102ea565b600080fd5b3d91506104f2565b634e487b7160e01b600052601160045260246000fd5b9650506040863d604011610586575b8161055b60409383611e98565b8101031261051c57602061056e8761270a565b9601519561ffff8716870361051c579561ffff610290565b3d915061054e565b6040513d6000823e3d90fd5b3461051c576105a836611d34565b90818111158061065d575b6105bc9061224b565b6105c68183612297565b600190818101809111610529576105dc906122c8565b91805b848111156105f957604051806105f58682611e05565b0390f35b80600052600080516020612cc383398151915260205261063b604060002061062a6106248585612297565b91611fb6565b6106348288612318565b5285612318565b50828101809111156105df57634e487b7160e01b600052601160045260246000fd5b50600080516020612ca38339815191525482106105b3565b3461051c5760208060031936011261051c576004359081600052600080516020612cc383398151915280825260ff60096040600020015460081c1660048110156104265760016106c59114611f6b565b600083815281835260409020600101546001600160a01b0392906106ee9084168461012f61271e565b836000528181526107026040600020611fb6565b9184600052600080516020612c838339815191528252604060002060405161072981611e4e565b815481526040600287600185015416938487850152015491015261079d579061077491856000528152600960406000200161030061ff001982541617905582019183835116306125fc565b51167fd68d26ab7202e0ff43e7ee058c16686e737f214c5832bfc1dd2fbb0518f60d8e600080a3005b60405162461bcd60e51b815260048101839052602260248201527f456e676c69736841756374696f6e3a206269647320616c7265616479206d6164604482015261329760f11b6064820152608490fd5b3461051c57600036600319011261051c57604061080861277d565b919082825193849260208452816020850152848401376000828201840152601f01601f19168101030190f35b3461051c5761084236611d34565b908181111580610aae575b6108569061224b565b6108608183612297565b9060019182810180911161052957610877906122c8565b92600091805b8281111561099d57505050610891906122c8565b90600083519360005b8581106108af57604051806105f58782611e05565b6001600160401b0342816101406108c68587612318565b5101511611159081610982575b508061095a575b8061093a575b610906575b8381018091111561089a57634e487b7160e01b600052601160045260246000fd5b6109108183612318565b5192806000198114610529578561093492019461092d8289612318565b5286612318565b506108e5565b506001600160a01b03604061094f8385612318565b5101511615156108e0565b506109726101a061096b8385612318565b5101611ef3565b60048110156104265784146108da565b4291506101606109928486612318565b5101511611876108d3565b6109a78282612297565b81600052600080516020612cc38339815191526020526109ca6040600020611fb6565b6109d48289612318565b526109df8188612318565b506001600160401b039042826101406109f8848c612318565b5101511611159182610a90575b5081610a6d575b81610a4a575b50610a39575b8481018091111561087d57634e487b7160e01b600052601160045260246000fd5b928481018091116105295792610a18565b6001600160a01b039150604090610a619089612318565b51015116151587610a12565b9050610a7f6101a061096b838a612318565b600481101561042657861490610a0c565b9091504290610160610aa2848b612318565b51015116119088610a05565b50600080516020612ca383398151915254821061084d565b3461051c57602036600319011261051c57610adf6121e3565b50600435600052600080516020612cc38339815191526020526101c0610b086040600020611fb6565b610b156040518092611d4a565bf35b3461051c57602036600319011261051c5760043580600052600080516020612cc3833981519152908160205260ff60096040600020015460081c1691600483101561042657610b6a600160409414611f6b565b81600052602052610b7d82600020611fb6565b90600052600080516020612c838339815191526020526105f5826000209160a0845191610ba983611e4e565b84548352600180831b03926002846001880154169687602084015201549687910152015116926040519384938460409194939294606082019560018060a01b0380921683521660208201520152565b3461051c57610c0636611d34565b81600052600080516020612cc3833981519152918260205260ff60096040600020015460081c1691600483101561042657602093610c496001610cbd9514611f6b565b826000528452610c5c6040600020611fb6565b91600052600080516020612c8383398151915284526040806000206002825191610c8583611e4e565b8054835260018101546001600160a01b0316888401520154910181905260c0830151610120909301516001600160401b031692612342565b6040519015158152f35b3461051c5761014036600319011261051c57610ce161271e565b60405163a32fa5b360e01b8082527ff94103142c1baabe9ac2b5d1487bf783de9e69cfeea9a72f5c9c94afd7877b8c60048301526001600160a01b039092166024820152602081604481305afa90811561058e5760009161157f575b501561154b57610d4b611ed1565b6040519182527f86d5cf0a6bdc8d859ba3bdc97043337c82a0e609035f378e419298b6a3e00ae660048301526001600160a01b03166024820152602081604481305afa90811561058e5760009161152c575b50156114f957600080516020612ca383398151915280549060018201908183116105295755610dca61271e565b90610dd3611ed1565b6040516301ffc9a760e01b808252636cdb3d1360e11b60048301526001600160a01b03929092169190602081602481865afa90811561058e576000916114da575b50156114065750506001915b6040519261014084018481106001600160401b038211176113f0576040526004356001600160a01b038116810361051c57845260243560208501526044356040850152606435936001600160a01b038516850361051c57846060820152608435608082015260a43560a08201526001600160401b0360c4351660c4350361051c5760c43560c08201526001600160401b0360e4351660e4350361051c5760e43560e08201526001600160401b036101043516610104350361051c57610104356101008201526001600160401b036101243516610124350361051c5761012435610120820152604435156113995760016040820151148015611386575b1561132c576001600160401b0360c082015116156112e7576001600160401b0360e082015116156112a257610e106001600160401b0361010083015116016001600160401b038111610529576001600160401b0342911610158061127d575b1561122c5760a0810151801591821561121d575b5050156111cc5761103090610fa2611ed1565b9460405195610fb087611e69565b8587526001600160a01b0385811660208901529081166040880152602435606088015260443560808801521660a086015260843560c086015260a43560e08601526001600160401b0360c435811661010087015260e435811661012087015261010435811661014087015261012435166101608601526101808501611ee7565b60016101a084015281600052600080516020612cc383398151915260205260096040600020845181556001810160018060a01b03602087015116906001600160601b0360a01b91828254161790556002820160018060a01b03604088015116828254161790556060860151600383015560808601516004830155600582019060018060a01b0360a0880151169082541617905560c0850151600682015560e085015160078201556001600160401b036101008601511667ffffffffffffffff60401b61012087015160401b16906001600160401b0360801b61014088015160801b16906001600160401b0360c01b61016089015160c01b16921717176008820155019261018081015160028110156104265760ff801986541691161784556101a08101519060048210156104265761116b8492602096611f00565b6111768130856125fc565b7fc04e70ae90764fd9186e71dc14056ada1cd1e2f34cc2d6476eb22ff60efb40c86101c06001600160a01b036111aa611ed1565b16946111b96040518095611d4a565b6001600160a01b031692a4604051908152f35b60405162461bcd60e51b8152602060048201526024808201527f456e676c69736841756374696f6e3a20696e76616c69642062696420616d6f75604482015263373a399760e11b6064820152608490fd5b60800151111590508580610f8f565b60405162461bcd60e51b815260206004820152602360248201527f456e676c69736841756374696f6e3a20696e76616c69642074696d657374616d60448201526238399760e91b6064820152608490fd5b506001600160401b03610100820151166001600160401b036101208301511611610f7b565b60405162461bcd60e51b815260206004820152601e60248201527f456e676c69736841756374696f6e3a206e6f206269642d6275666665722e00006044820152606490fd5b60405162461bcd60e51b815260206004820152601f60248201527f456e676c69736841756374696f6e3a206e6f2074696d652d6275666665722e006044820152606490fd5b60405162461bcd60e51b815260206004820152602c60248201527f456e676c69736841756374696f6e3a2061756374696f6e696e6720696e76616c60448201526b34b21038bab0b73a34ba3c9760a11b6064820152608490fd5b5060028210156104265760018214610f1c565b60405162461bcd60e51b815260206004820152602960248201527f456e676c69736841756374696f6e3a2061756374696f6e696e67207a65726f2060448201526838bab0b73a34ba3c9760b91b6064820152608490fd5b634e487b7160e01b600052604160045260246000fd5b60209060246040518094819382526380ac58cd60e01b60048301525afa90811561058e576000916114ab575b501561144057600091610e20565b60405162461bcd60e51b815260206004820152603a60248201527f456e676c69736841756374696f6e3a2061756374696f6e656420746f6b656e2060448201527f6d7573742062652045524331313535206f72204552433732312e0000000000006064820152608490fd5b6114cd915060203d6020116114d3575b6114c58183611e98565b810190611eb9565b83611432565b503d6114bb565b6114f3915060203d6020116114d3576114c58183611e98565b85610e14565b60405162461bcd60e51b815260206004820152600b60248201526a2141535345545f524f4c4560a81b6044820152606490fd5b611545915060203d6020116114d3576114c58183611e98565b81610d9d565b60405162461bcd60e51b815260206004820152600c60248201526b214c49535445525f524f4c4560a01b6044820152606490fd5b611598915060203d6020116114d3576114c58183611e98565b82610d3d565b3461051c57600036600319011261051c576020600080516020612ca383398151915254604051908152f35b3461051c57602036600319011261051c5760043580600052600080516020612cc3833981519152908160205260ff60096040600020015460081c1660048110156104265760016116199114611f6b565b600052602052602060086040600020015460c01c604051904211158152f35b3461051c57600036600319011261051c57602061165361271e565b6040516001600160a01b039091168152f35b61166e36611d34565b61168a6002600080516020612c63833981519152541415611f1f565b6002600080516020612c638339815191525581600052600080516020612cc383398151915260205260ff60096040600020015460081c1660048110156104265760016116d69114611f6b565b81600052600080516020612cc38339815191526020526116f96040600020611fb6565b906001600160401b0361016083015116421080611bef575b15611ba0578015611b495761172461271e565b6040519361173185611e4e565b845260018060a01b0316602084015260408301528051600052600080516020612c83833981519152602052604060002060026040519161177083611e4e565b8054835260018101546001600160a01b031660208401520154604080830182905284015160e08401518015159081611b3e575b50156118d857509061181d9160e0840151916117bf8686612390565b602001516001600160a01b0316801515806118cf575b61188b575b505060a083015160208501517f0000000000000000000000000000000000000000000000000000000000000000929130916001600160a01b0390811691166127e6565b80517f73a3ddb4c4a8f012b37d781ad9d6c303dc9273877b279dfc5e7841b7caa867c56101e060018060a01b0360208601511693611876604060018060a01b038184015116970151916040519283526020830190611d4a565ba46001600080516020612c6383398151915255005b60a08501516118c8927f000000000000000000000000000000000000000000000000000000000000000092909130906001600160a01b03166127e6565b84806117da565b508115156117d5565b906118f860c085015183836001600160401b036101208901511692612342565b15611afa578351600052600080516020612c838339815191526020526040600020855181556001810160018060a01b036020880151166001600160601b0360a01b82541617905560026040870151910155611961426001600160401b0361016087015116612297565b6001600160401b036101008601511680911115611983575b5061181d926117bf565b6001600160401b0361016086015116016001600160401b038111610529576001600160401b03166101608501528351600052600080516020612cc383398151915260205260096040600020855181556001810160018060a01b036020880151166001600160601b0360a01b8254161790556002810160018060a01b036040880151166001600160601b0360a01b82541617905560608601516003820155608086015160048201556005810160018060a01b0360a0880151166001600160601b0360a01b82541617905560c0860151600682015560e086015160078201556001600160401b036101008701511667ffffffffffffffff60401b61012088015160401b16906001600160401b0360801b61014089015160801b16906001600160401b0360c01b6101608a015160c01b16921717176008820155019261018085015160028110156104265760ff801986541691161784556101a08501519360048510156104265761181d94611af491611f00565b92611979565b606460405162461bcd60e51b815260206004820152602060248201527f456e676c69736841756374696f6e3a206e6f742077696e6e696e67206269642e6044820152fd5b9050811015866117a3565b60405162461bcd60e51b815260206004820152602960248201527f456e676c69736841756374696f6e3a2062696464696e672077697468207a6572604482015268379030b6b7bab73a1760b91b6064820152608490fd5b60405162461bcd60e51b815260206004820152602160248201527f456e676c69736841756374696f6e3a20696e6163746976652061756374696f6e6044820152601760f91b6064820152608490fd5b50426001600160401b03610140840151161115611711565b3461051c57602036600319011261051c57600435600080516020612c63833981519152611c38600282541415611f1f565b6002815581600052600080516020612cc383398151915280602052611c606040600020611fb6565b83600052600080516020612c838339815191526020526040600020604051611c8781611e4e565b8154815260018201546001600160a01b039081166020830190815260029093015460408301526101a084018051909491600482101561042657611cfc94611cd46003611cf7941415611f6b565b611cee6001600160401b0361016086015116421015612132565b5116151561218c565b612390565b5192600484101561042657600260019403611d1657505055005b600052602052600960406000200161020061ff001982541617905555005b604090600319011261051c576004359060243590565b8051825260018060a01b03806020830151166020840152806040830151166040840152606082015160608401526080820151608084015260a08201511660a083015260c081015160c083015260e081015160e08301526001600160401b036101008181840151169084015261012081818401511690840152610140818184015116908401526101609081830151169083015261018080820151906002821015610426578301526101a080910151916004831015610426570152565b6020908160408183019282815285518094520193019160005b828110611e2c575050505090565b90919293826101c082611e426001948951611d4a565b01950193929101611e1e565b606081019081106001600160401b038211176113f057604052565b6101c081019081106001600160401b038211176113f057604052565b6001600160401b0381116113f057604052565b90601f801991011681019081106001600160401b038211176113f057604052565b9081602091031261051c5751801515810361051c5790565b6004356001600160a01b038116810361051c5790565b60028210156104265752565b5160048110156104265790565b9060048110156104265761ff0082549160081b169061ff001916179055565b15611f2657565b60405162461bcd60e51b815260206004820152601f60248201527f5265656e7472616e637947756172643a207265656e7472616e742063616c6c006044820152606490fd5b15611f7257565b606460405162461bcd60e51b815260206004820152602060248201527f456e676c69736841756374696f6e3a20696e76616c69642061756374696f6e2e6044820152fd5b90604051611fc381611e69565b60ff600982948054845260018060a01b03806001830154166020860152806002830154166040860152600382015460608601526004820154608086015260058201541660a0850152600681015460c0850152600781015460e085015260088101546001600160401b03808216610100870152808260401c166101208701528160801c1661014086015260c01c61016085015201546120678282166101808501611ee7565b60081c16906004821015610426576101a00152565b1561208357565b60405162461bcd60e51b8152602060048201526024808201527f456e676c69736841756374696f6e3a206e6f742061756374696f6e20637265616044820152633a37b91760e11b6064820152608490fd5b156120db57565b60405162461bcd60e51b815260206004820152602960248201527f456e676c69736841756374696f6e3a207061796f757420616c7265616479206360448201526837b6b83632ba32b21760b91b6064820152608490fd5b1561213957565b60405162461bcd60e51b815260206004820152602560248201527f456e676c69736841756374696f6e3a2061756374696f6e207374696c6c2061636044820152643a34bb329760d91b6064820152608490fd5b1561219357565b60405162461bcd60e51b815260206004820152602260248201527f456e676c69736841756374696f6e3a206e6f20626964732077657265206d6164604482015261329760f11b6064820152608490fd5b604051906121f082611e69565b816101a06000918281528260208201528260408201528260608201528260808201528260a08201528260c08201528260e082015282610100820152826101208201528261014082015282610160820152826101808201520152565b1561225257565b60405162461bcd60e51b815260206004820152601e60248201527f456e676c69736841756374696f6e3a20696e76616c69642072616e67652e00006044820152606490fd5b9190820391821161052957565b9190820180921161052957565b6001600160401b0381116113f05760051b60200190565b906122d2826122b1565b6122df6040519182611e98565b82815280926122f0601f19916122b1565b019060005b82811061230157505050565b60209061230c6121e3565b828285010152016122f5565b805182101561232c5760209160051b010190565b634e487b7160e01b600052603260045260246000fd5b929080612350575050101590565b8083119350909183612363575b50505090565b819293509061237191612297565b612710908181029181830414901517156105295704101538808061235d565b9081519160009283527fd526f5655f36f7dc8e8bd7b8ff16d8886b1e27059b0d19a6ab0f4742ac8dc6e6916020938385526040936123d460ff8684205416156120d4565b835182528552838082209360ff19946001868254161790556101608101926001600160401b0395864216855282518252600080516020612c83833981519152895260098483209587518755600187019660028c8a019b8c9a60018060a01b03809c51169a6001600160601b0360a01b9b8c825416179055015191015584518452600080516020612cc38339815191528b528584209085518255600182019b86019b898d51168982541617905560028201998787019a8a8c51168a8254161790556060870198895160038501556080880151600485015560058401908b60a08a0151169082541617905560c0870151600684015560e08701516007840155610100870151169067ffffffffffffffff60401b610120880151891b16916001600160401b0360801b61014089015160801b16916001600160401b0360c01b905160c01b1692171717600882015501906101808401519060028210156125e85760ff9083541691161781556101a08301519160048310156125d45750946125cf92612580829695937f7003143824ad94e684efcfd33e097dd7cd0e67243daf20f345f5186a9a7ba00a98611f00565b61258e81838b5116306125fc565b5196511696848061259d61271e565b95519a51925193519a8b526001600160a01b039216821660208b01529091161660408801529116949081906060820190565b0390a4565b634e487b7160e01b81526021600452602490fd5b634e487b7160e01b84526021600452602484fd5b909161018081018051600281101561042657600103612690575060018060a01b039081604082015116926080606083015192015191843b1561051c5760009460c493869286604051998a988997637921219560e11b89521660048801521660248601526044850152606484015260a060848401528160a48401525af1801561058e576126855750565b61268e90611e85565b565b51600281101561042657156126a457505050565b6040810151606090910151916001600160a01b0391821690813b1561051c57600060a4928195856040519889978896635c46a7ef60e11b88521660048701521660248501526044840152608060648401528160848401525af1801561058e576126855750565b51906001600160a01b038216820361051c57565b60405163572b6c0560e01b8152336004820152602081602481305afa90811561058e5760009161275f575b501561275b5736601319013560601c90565b3390565b612777915060203d81116114d3576114c58183611e98565b38612749565b60405163572b6c0560e01b8152336004820152602081602481305afa90811561058e576000916127c8575b50156127c1576013193601903682116105295760009190565b6000903690565b6127e0915060203d81116114d3576114c58183611e98565b386127a8565b90939291938215612908576001600160a01b039180831673eeeeeeeeeeeeeeeeeeeeeeeeeeeeeeeeeeeeeeee036128f957508116300361286e57821692833b1561051c5760008094602460405180978193632e1a7d4d60e01b83528760048401525af193841561058e5761268e9461285f575b50612bdc565b61286890611e85565b38612859565b91909230838216146000146128ed57503483036128b25716803b1561051c57600090600460405180948193630d0e30db60e41b83525af1801561058e576126855750565b60405162461bcd60e51b81526020600482015260136024820152721b5cd9cb9d985b1d5948084f48185b5bdd5b9d606a1b6044820152606490fd5b61268e93919250612bdc565b90915061268e9492935061290f565b5050505050565b6001600160a01b0391808316848416811461297f573003612937575061268e93929116612987565b6040516323b872dd60e01b60208201526001600160a01b0391821660248201529316604484015260648084019490945292825261268e92612979608484611e98565b166129d2565b505050505050565b60405163a9059cbb60e01b60208201526001600160a01b03909216602483015260448083019390935291815260808101916001600160401b038311828410176113f05761268e926040525b60408051908101916001600160a01b03166001600160401b038311828410176113f057612a41926040526000806020958685527f5361666545524332303a206c6f772d6c6576656c2063616c6c206661696c656487860152868151910182855af1612a3b612ac9565b91612b08565b805190828215928315612ab1575b50505015612a5a5750565b6084906040519062461bcd60e51b82526004820152602a60248201527f5361666545524332303a204552433230206f7065726174696f6e20646964206e6044820152691bdd081cdd58d8d9595960b21b6064820152fd5b612ac19350820181019101611eb9565b388281612a4f565b3d15612b03573d906001600160401b0382116113f05760405191612af7601f8201601f191660200184611e98565b82523d6000602084013e565b606090565b91929015612b6a5750815115612b1c575090565b3b15612b255790565b60405162461bcd60e51b815260206004820152601d60248201527f416464726573733a2063616c6c20746f206e6f6e2d636f6e74726163740000006044820152606490fd5b825190915015612b7d5750805190602001fd5b6040519062461bcd60e51b82528160208060048301528251908160248401526000935b828510612bc3575050604492506000838284010152601f80199101168101030190fd5b8481018201518686016044015293810193859350612ba0565b600093928480808086865af1612bf0612ac9565b5015612bfe575b5050509050565b6001600160a01b0316803b15612c5e57604051630d0e30db60e41b8152858160048187865af18015612c5357612c3b959650612c44575b50612987565b80388080612bf7565b612c4d90611e85565b38612c35565b6040513d88823e3d90fd5b8480fdfebbf78d3411d42a81effd97bb8c69faae4e77e75cec462245c1001191a0634c6fd526f5655f36f7dc8e8bd7b8ff16d8886b1e27059b0d19a6ab0f4742ac8dc6e5d526f5655f36f7dc8e8bd7b8ff16d8886b1e27059b0d19a6ab0f4742ac8dc6e3d526f5655f36f7dc8e8bd7b8ff16d8886b1e27059b0d19a6ab0f4742ac8dc6e4a26469706673582212205c0eba3647b7f9c9b8b616557b50eb5355eabd481825902957610fcc202b6edd64736f6c63430008130033",
  "linkReferences": {},
  "deployedLinkReferences": {}
}